{
  "address": "0x40FD1Ba522cab983C98348b4B0AA12699089aCA9",
  "abi": [
    {
      "inputs": [
        {
          "internalType": "address",
          "name": "_aavePoolAddress",
          "type": "address"
        },
        {
          "internalType": "address",
          "name": "_initiator",
          "type": "address"
        },
        {
          "internalType": "address",
          "name": "_priceContract",
          "type": "address"
        }
      ],
      "stateMutability": "nonpayable",
      "type": "constructor"
    },
    {
      "inputs": [
        {
          "internalType": "address",
          "name": "initiator",
          "type": "address"
        },
        {
          "internalType": "address",
          "name": "token",
          "type": "address"
        },
        {
          "internalType": "uint256",
          "name": "amount",
          "type": "uint256"
        },
        {
          "internalType": "uint256",
          "name": "fee",
          "type": "uint256"
        },
        {
          "internalType": "bytes",
          "name": "data",
          "type": "bytes"
        }
      ],
      "name": "onFlashLoan",
      "outputs": [
        {
          "internalType": "bytes32",
          "name": "",
          "type": "bytes32"
        }
      ],
      "stateMutability": "nonpayable",
      "type": "function"
    },
    {
      "inputs": [],
      "name": "priceContract",
      "outputs": [
        {
          "internalType": "contract ETH_USD",
          "name": "",
          "type": "address"
        }
      ],
      "stateMutability": "view",
      "type": "function"
    }
  ],
  "transactionHash": "0xab68a7200fdecf52af12b5fb222b2b7c6ef9646f3c4f275d3dc75eae51b3addd",
  "args": [
    "0x6Ae43d3271ff6888e7Fc43Fd7321a503ff738951",
    "0xF9b611c9D91cE4867ec650E01793fC539311489F",
    "0xdd5783BD8634E03A9c2327a7F941131ED46bEc04"
  ],
  "numDeployments": 1,
  "solcInputHash": "433191263df5c1a7a0eaf53433121bc0",
  "bytecode": "0x608060405234801561001057600080fd5b5060405161056038038061056083398101604081905261002f9161008d565b600080546001600160a01b039485166001600160a01b0319918216179091556001805493851693821693909317909255600280549190931691161790556100d0565b80516001600160a01b038116811461008857600080fd5b919050565b6000806000606084860312156100a257600080fd5b6100ab84610071565b92506100b960208501610071565b91506100c760408501610071565b90509250925092565b610481806100df6000396000f3fe608060405234801561001057600080fd5b50600436106100365760003560e01c806323e30c8b1461003b578063ae372ec114610061575b600080fd5b61004e6100493660046102c6565b61008c565b6040519081526020015b60405180910390f35b600254610074906001600160a01b031681565b6040516001600160a01b039091168152602001610058565b600080546001600160a01b031633146100eb5760405162461bcd60e51b815260206004820152601f60248201527f43616c6c6572206973206e6f742041617665204c656e64696e6720506f6f6c00604482015260640160405180910390fd5b60006100f98385018561036c565b90506000600260009054906101000a90046001600160a01b03166001600160a01b031663bea4dfb56040518163ffffffff1660e01b8152600401602060405180830381865afa158015610150573d6000803e3d6000fd5b505050506040513d601f19601f8201168201806040525081019061017491906103e2565b905061017f82610234565b600061018b87896103fb565b60005460405163095ea7b360e01b81526001600160a01b039182166004820152602481018390529192508a169063095ea7b3906044016020604051808303816000875af11580156101e0573d6000803e3d6000fd5b505050506040513d601f19601f820116820180604052508101906102049190610422565b507f439148f0bbc682ca079e46d6e2c2f0c1e3b820f1a291b069d8882abf8cf18dd99a9950505050505050505050565b805161023f90610242565b50565b6040516001600160a01b038216602482015261023f9060440160408051601f198184030181529190526020810180516001600160e01b031663161765e160e11b17905261023f8160006a636f6e736f6c652e6c6f679050600080835160208501845afa505050565b80356001600160a01b03811681146102c157600080fd5b919050565b60008060008060008060a087890312156102df57600080fd5b6102e8876102aa565b95506102f6602088016102aa565b94506040870135935060608701359250608087013567ffffffffffffffff8082111561032157600080fd5b818901915089601f83011261033557600080fd5b81358181111561034457600080fd5b8a602082850101111561035657600080fd5b6020830194508093505050509295509295509295565b60006060828403121561037e57600080fd5b6040516060810181811067ffffffffffffffff821117156103af57634e487b7160e01b600052604160045260246000fd5b6040526103bb836102aa565b81526103c9602084016102aa565b6020820152604083013560408201528091505092915050565b6000602082840312156103f457600080fd5b5051919050565b8082018082111561041c57634e487b7160e01b600052601160045260246000fd5b92915050565b60006020828403121561043457600080fd5b8151801515811461044457600080fd5b939250505056fea26469706673582212205fd6b064bf1fc31f8def1c0e06b400baa924e47214f535b7e18e949230027cca64736f6c63430008130033",
  "devdoc": {
    "author": "ArbiGHOst",
    "kind": "dev",
    "methods": {
      "onFlashLoan(address,address,uint256,uint256,bytes)": {
        "details": "Receive a flash loan.",
        "params": {
          "amount": "The amount of tokens lent.",
          "data": "Arbitrary data structure, intended to contain user-defined parameters.",
          "fee": "The additional amount of tokens to repay.",
          "initiator": "The initiator of the loan.",
          "token": "The loan currency."
        },
        "returns": {
          "_0": "The keccak256 hash of \"IERC3156FlashBorrower.onFlashLoan\""
        }
      }
    },
    "version": 1
  },
  "userdoc": {
    "kind": "user",
    "methods": {},
    "notice": "A smart contract that liquidates potisions on Aave v3",
    "version": 1
  },
  "storageLayout": {
    "storage": [
      {
        "astId": 2045,
        "contract": "contracts/GhoLiquidationReceiver.sol:GhoLiquidationReceiver",
        "label": "aavePool",
        "offset": 0,
        "slot": "0",
        "type": "t_contract(IPool)638"
      },
      {
        "astId": 2047,
        "contract": "contracts/GhoLiquidationReceiver.sol:GhoLiquidationReceiver",
        "label": "initator",
        "offset": 0,
        "slot": "1",
        "type": "t_address"
      },
      {
        "astId": 2050,
        "contract": "contracts/GhoLiquidationReceiver.sol:GhoLiquidationReceiver",
        "label": "priceContract",
        "offset": 0,
        "slot": "2",
        "type": "t_contract(ETH_USD)2031"
      }
    ],
    "types": {
      "t_address": {
        "encoding": "inplace",
        "label": "address",
        "numberOfBytes": "20"
      },
      "t_contract(ETH_USD)2031": {
        "encoding": "inplace",
        "label": "contract ETH_USD",
        "numberOfBytes": "20"
      },
      "t_contract(IPool)638": {
        "encoding": "inplace",
        "label": "contract IPool",
        "numberOfBytes": "20"
      }
    }
  }
}